:10E00000AFC00000E2C00000C6C00000C4C00000F5
:10E01000C2C00000C0C00000BEC00000BCC0000004
:10E02000BAC00000B8C00000B6C00000B4C0000014
:10E03000B2C00000B0C00000AEC00000ACC0000024
:10E04000AAC00000A8C00000A6C00000A4C0000034
:10E05000A2C00000A0C000009EC000009CC0000044
:10E060009AC0000098C0000096C0000094C0000054
:10E0700092C0000090C000008EC000008CC0000064
:10E080008AC0000088C0000086C0000084C0000074
:10E0900082C0000080C000007EC000007CC0000084
:10E0A0007AC0000078C0000076C0000074C0000094
:10E0B00072C0000070C000006EC000006CC00000A4
:10E0C0006AC0000068C0000066C0000064C00000B4
:10E0D00062C0000060C000005EC000005CC00000C4
:10E0E0005AC000000403090412036F0062006400B8
:10E0F000650076002E00610074001003480049009E
:10E10000440042006F006F00740012011001000013
:10E110000008C016DF05000101020001090222000B
:10E120000101008032090400000103000000092100
:10E1300001010001222100070581030800C8060033
:10E14000FF0901A101150026FF007508850195064C
:10E150000900B20201850295830900B20201C000E4
:10E1600011241FBECFEFD1E2DEBFCDBF12E0A0E091
:10E17000B2E0EEE4F7EE02C005900D92AA30B107CE
:10E18000D9F712E0AAE0B2E001C01D92AB33B107AB
:10E19000E1F733D1DAC234CFA82FB92F80E090E075
:10E1A00041E050EA609530E009C02D9182279795B3
:10E1B000879510F084279527305EC8F36F5FA8F32A
:10E1C0000895EADF8D939D930895CF93CFB7CF93B2
:10E1D000DF93C395499BE9F7499B0BC0499B09C055
:10E1E000499B07C0499B05C0499B03C0499B01C08F
:10E1F0008BC06F93C0911E02DD27CB5DDD4F2F9347
:10E2000065E5499B03C02F916F91E6CF0F931F9354
:10E210004F9320E040E15F9309B1037001FB27F9C0
:10E220003F9350E03BE039C0137040642F77012FDB
:10E230005F5F1EC0406819B113702F7752501FC026
:10E24000406409B12F770370D1F15F5F00C023C034
:10E25000406219B12F77137091F15F5F00C025C044
:10E2600003701027515012F45D5F00001150279584
:10E270002C3F19B1C8F613700127015027952C3F88
:10E28000C8F64227499309B1037010274F73115004
:10E2900027952C3FA8F64695469519B1137079F04D
:10E2A0000127015027952C3F98F66B5A60F33150A7
:10E2B00009B1B0F600C011E01CBB002719C03B50EB
:10E2C0003195C31BD04011E01CBB0881033C09F110
:10E2D0000B34F9F020911C021981110F1213EDCFAC
:10E2E0004A81441F093651F10D3211F0013E29F7E0
:10E2F000009323023F915F914F911F910F912F91B6
:10E300006F91CCB3C0FD65CFDF91CF91CFBFCF91DF
:10E31000189520912302222369F3109121021123E1
:10E3200049F534304AF13093210220931D021091B7
:10E330001E023BE0311B30931E021EC000912102E1
:10E340000130C4F40AE54F70A9F43091000234FDA5
:10E3500014C000930002C1E1D2E013C0052710E011
:10E3600000C000000BB91AC0052710E0221F1DC015
:10E3700010E021C04AE502C032ED432FC4E1D0E0F5
:10E3800032E01AB11360599A0BB11AB953E020E880
:10E3900065E320FF05270BB9279517951C3FF0F67D
:10E3A0006695B8F7B1F720FF05270BB927951795A4
:10E3B0001C3FD0F62795179517FF052700001C3F37
:10E3C0000BB9B0F629913A9519F70C7F10912202FA
:10E3D000110FC651D0400BB911F010931C0211E07F
:10E3E0001CBB02601AB11C7F402F4C7F54E05A9531
:10E3F000F1F70BB91AB94BB97DCFDF93CF930F92D9
:10E40000CDB7DEB7579A80E28BB985E38A95F1F7ED
:10E41000000081E085BF82E085BF80916900836054
:10E4200080936900E89A54985C9880E0A895EFE999
:10E43000FFE03197F1F700C000008150B9F7549A1E
:10E440005C9A789400E010E0A89520912102422F78
:10E45000435047FD11C180911E02ACE0B0E0A81B03
:10E46000B109AB5DBD4F80911D028D3209F0BCC07A
:10E47000483009F0FFC083EC809311028AE5809355
:10E48000000210920B029C91292F207611968C91FC
:10E4900011972223E1F0893079F412968C9112972A
:10E4A000823031F410920C0297FD89C02FEF8AC0A0
:10E4B00081E080930A0247C1813009F044C182E0C3
:10E4C00092E09093200280931F0227E07FC0129673
:10E4D0009C91129710921A02882331F410921B0219
:10E4E0008AE192E022E066C0853019F4909322021E
:10E4F00057C0863009F04BC013968C91139781302A
:10E5000019F48AE091EE1AC0823041F48CE191EE68
:10E510009093200280931F0222E235C08330F1F4F1
:10E52000992341F484EE90EE9093200280931F0291
:10E5300024E029C0913041F488EE90EE90932002BF
:10E5400080931F0222E11FC09230E1F48AEF90EE27
:10E550009093200280931F0220E115C0813241F484
:10E560008EE291EE9093200280931F0229E00BC06F
:10E57000823241F48EE391EE9093200280931F0249
:10E5800021E201C020E080E480930B021FC08830AC
:10E5900059F0893019F49093240202C08A3039F07E
:10E5A0008AE192E020E006C084E292E002C08AE1C3
:10E5B00092E021E09093200280931F0207C01696FC
:10E5C0002C91169780E880930B020BC017968C91C4
:10E5D0001797882331F416968C911697821708F4B2
:10E5E000282F2093010246C080910B0287FF42C072
:10E5F00080910D0290910E0250910C02552349F426
:10E6000011968C91119712969C9112971496422F05
:10E610004750540F50930C025078882351F4F894CB
:10E6200023E0FC0120935700E895789407B600FC9E
:10E63000FDCFF8942D913D9161E0FC0109016093BB
:10E640005700E895112478940296882349F4F894A9
:10E6500025E020935700E895789407B600FCFDCF9D
:10E660004250D9F690930E0280930D02552311F07B
:10E6700010920102109221028091000284FF3EC09C
:10E68000809101028F3F09F439C0282F893008F0AA
:10E6900028E0821B809301028091110298E889276B
:10E6A000809311022223E1F0E0911F02F0912002F9
:10E6B00080910B0286FF09C0822FA2E1B2E0949103
:10E6C0009D9331968150D9F707C0822FA2E1B2E025
:10E6D00091919D938150E1F7F0932002E0931F0206
:10E6E00082E192E0622F29836CDD29812C5F2C303E
:10E6F00019F08FEF809301022093000284E199B119
:10E70000937031F48150D9F71092220210921C02BA
:10E7100080910A02882309F497CE115009F094CE13
:10E72000015009F091CEF89481E180935700E8956B
:10E730001DBA1092690081E085BF15BEE0910F02FD
:0EE74000F0911002099520E041CFF894FFCF30
:0AE74E005AFF010001000001000065
:040000030000E00019
:00000001FF
