:100000000C94A0000C94CF010C94BD000C94BD0086
:100010000C94BD000C94BD000C94BD000C94BD006C
:100020000C94BD000C94BD000C94BD000C94BD005C
:100030000C94BD000C94BD000C94BD000C94BD004C
:100040000C94BD000C94BD000C94BD000C94BD003C
:100050000C94BD000C94BD000C94BD000C94BD002C
:100060000C94BD000C94BD000C94BD000C94BD001C
:100070000C94BD000C94BD000C94BD000C94BD000C
:100080000C94BD000C94BD000C94BD000C94BD00FC
:100090000C94BD000C94BD000C94BD000C94BD00EC
:1000A0000C94BD000C94BD000C94BD000C94BD00DC
:1000B0000C94BD000C94BD000C94BD000C94BD00CC
:1000C0000C94BD000C94BD000C94BD000C94BD00BC
:1000D0000C94BD000C94BD000C94BD000C94BD00AC
:1000E0000C94BD000403090424036F007200620035
:1000F0006900740061006C0072006F0062006F00A4
:10010000740073002E0063006F006D001003450043
:100110004400550042004500410054001201100106
:1001200000000008C016DC05000101020001090200
:1001300012000101008064090400000000000000BA
:1001400011241FBECFEFD1E2DEBFCDBF12E0A0E091
:10015000B2E0EAE8F7E002C005900D92A430B107E2
:10016000D9F712E0A4E0B2E001C01D92A734B107B4
:10017000E1F70E944D030C94C3030C9400001F93FD
:10018000CF93DF9380912A02835087FD89C090919D
:100190002702209126022D3209F080C0883009F014
:1001A0007DC0CCE0D0E0C91BD109C25DDD4F83EC3E
:1001B00080931A028AE580930002109204028881DB
:1001C000807621F0CE010E943F035FC09A81109299
:1001D00023028981882331F41092240223E232E041
:1001E00082E04FC0853019F490932B0240C08630D6
:1001F000A9F58B81813019F48CE191E004C0823043
:1002000041F48EE291E0909329028093280282E1EA
:1002100021C08330F1F4992341F484EE90E090936F
:1002200029028093280284E015C0913041F488EEC1
:1002300090E0909329028093280284E20BC09230D0
:1002400041F48CE091E0909329028093280280E1B0
:1002500001C080E090E49093040217C0883059F008
:10026000893019F490932D0202C08A3039F023E2CC
:1002700032E080E006C02DE232E002C023E232E04C
:1002800081E030932902209328029F81992321F451
:100290009E81981708F4892F8093010210922A02F8
:1002A0008091000284FF4DC0809101028F3F09F4CC
:1002B00048C0182F893008F018E0811B8093010294
:1002C00080911A0298E8892780931A02112361F11C
:1002D000809128029091290230910402212F21500F
:1002E00036FF0EC030E0A901445E5D4FFC01ABE17A
:1002F000B2E064916D933196A417B507D1F70CC0A5
:10030000DC0130E0A901445E5D4FEBE1F2E06D916C
:100310006193E417F507D9F72F5F3F4F280F391F77
:1003200030932902209328028BE192E0612F0E94F2
:10033000CB011C5F1C3019F08FEF809301021093EA
:10034000000284E199B1937031F48150D9F7109291
:100350002B0210922502DF91CF911F910895E9E6BB
:10036000F0E0808182608083E89A0895A82FB92FF9
:1003700080E090E041E050EA609530E009C02D91C6
:1003800082279795879510F084279527305EC8F3CC
:100390006F5FA8F30895EADF8D939D930895CF933F
:1003A000CFB7CF93DF93C395499BE9F7499B0BC028
:1003B000499B09C0499B07C0499B05C0499B03C095
:1003C000499B01C089C06F93C0912702DD27C25DA0
:1003D000DD4F2F9365E5499B03C02F916F91E6CFC9
:1003E0000F931F934F9320E040E15F9309B1037097
:1003F00001FB27F93F9350E03BE039C013704064A4
:100400002F77012F5F5F1EC0406819B113702F77DF
:1004100052501FC0406409B12F770370D1F15F5F64
:1004200000C023C0406219B12F77137091F15F5F54
:1004300000C025C003701027515012F45D5F00000A
:10044000115027952C3F19B1C8F6137001270150A0
:1004500027952C3FC8F64227499309B1037010270E
:100460004F73115027952C3FA8F64695469519B124
:10047000137079F00127015027952C3F98F66B5A9D
:1004800060F3315009B1B0F600C011E01CBB002789
:1004900017C03B503195C31BD04011E01CBB0881F5
:1004A000033CF9F00B34E9F0209125021981110F7A
:1004B0001213EDCF093651F10D3211F0013E39F72B
:1004C00000932C023F915F914F911F910F912F91BB
:1004D0006F91CCB3C0FD67CFDF91CF91CFBFCF91EC
:1004E000189520912C02222369F310912A021123DE
:1004F00039F534303AF130932A02209326021091D4
:1005000027023BE0311B309327021CC000912A02D6
:100510000130B4F40AE53091000234FD14C00093B8
:100520000002CAE1D2E013C0052710E000C00000BD
:100530000BB91AC0052710E0221F1DC010E021C012
:100540004AE502C032ED432FC4E1D0E032E01AB1F7
:100550001360599A0BB11AB953E020E865E320FF04
:1005600005270BB9279517951C3FF0F66695B8F748
:10057000B1F720FF05270BB9279517951C3FD0F63B
:100580002795179517FF052700001C3F0BB9B0F6FC
:1005900029913A9519F70C7F10912B02110FC65132
:1005A000D0400BB911F01093250211E01CBB026082
:1005B0001AB11C7F402F4C7F54E05A95F1F70BB9CC
:1005C0001AB94BB97FCF483050F090917B009860BA
:1005D00090937B004850462B40937C0008C090913C
:1005E0007B00977F90937B00642B60937C00806CF2
:1005F00080937A0080917A0084FFFCCF209178006C
:1006000030917900932F80E030E0282B392BC901FD
:10061000089530934602209345024093440260932C
:100620007C00EBE7F0E09081977F9083886C80936B
:100630007A00089510927A0008955E98EEE6F0E050
:1006400080818E7F8083F89488E10FB6F894809340
:100650006000109260000FBE54985C98EAE7F0E0EA
:100660008081877F808380818F77808312B815B8DF
:1006700018B8E0910202F09103020995089525E06F
:1006800032E03093290220932802FC0181818823E3
:1006900011F485E1089580E008951F93CF93DF93CF
:1006A0002EE088E190E00FB6F894A8958093600062
:1006B0000FBE209360008CEF8BB91AB854985C98E9
:1006C000549A5C9A80917A00806880937A00809135
:1006D0007C0080937C0080917A00806480937A0013
:1006E00010BA11BA109207011092080117B88FEFD3
:1006F00088B9569A579A0E94AF01789410E4C3E0E3
:10070000D0E0A8950E94BF008BB181278BB94D998D
:1007100002C00E941D03A5E0B2E080E090E09C01D1
:1007200036952795369527952D93E82FE695E695EE
:10073000F0E09C0123703070220F331FAE01022EB7
:1007400002C0440F551F0A94E2F7EB5EFD4F542F91
:10075000509560815623BC0102C0660F771F2A9511
:10076000E2F79B012423522B5083E7ECF0E0319712
:10077000F1F700C0000001968031910581F686B145
:0A07800080931902BECFF894FFCF5A
:04078A005AFF0070A2
:00000001FF
